:020000040000FA
:0400000007EF00F016
:0A0008002282B3ED05F0A6EF06F02A
:100800000045737461646F3A20202020202020204E
:10081000200020202053454E4149202031313820EE
:1008200020200000000E956E030E936E9484000E3F
:100830006D6E6F865EEC06F0000E026E010E016EAC
:1008400017C003F018C004F088EC06F00F0E836E9A
:10085000010E046E010EF6EC05F0120E046E080E89
:10086000056EC3EC06F0010E046E020EF6EC05F008
:10087000010E046E080E056EC3EC06F020C00FF0EA
:1008800021C010F0050E0F240C6E000E10200D6E0E
:100890000C50205C2150800A0E6E0D50800A0E58BC
:1008A000D8A055EF04F057EF04F0F3EF04F083BE47
:1008B0005CEF04F05FEF04F0010E60EF04F0000E57
:1008C000FF0A0C6E0C320C3283500C187F0B0C1884
:1008D000836E20C00FF021C010F0F3EF04F083808E
:1008E000839283948396090E046E020EF6EC05F053
:1008F00019C001F0026A000E046E0A0E036E12ECBB
:1009000005F00150300F2FEC06F082A88AEF04F0BA
:100910008CEF04F042EF04F0020E196E42EF04F087
:100920008390838283948396090E046E020EF6EC04
:1009300005F019C001F0026A000E046E0A0E036E83
:1009400012EC05F00150300F2FEC06F082A4ABEF53
:1009500004F0ADEF04F042EF04F0030E196E42EF25
:1009600004F08390839283848396090E046E020EB2
:10097000F6EC05F019C001F0026A000E046E0A0ED2
:10098000036E12EC05F00150300F2FEC06F081A041
:10099000CCEF04F0CEEF04F042EF04F0040E196E39
:1009A00042EF04F08390839283948386090E046E51
:1009B000020EF6EC05F019C001F0026A000E046E9A
:1009C0000A0E036E12EC05F00150300F2FEC06F00A
:1009D00081A2EDEF04F0EFEF04F042EF04F0010E1E
:1009E000196E42EF04F019500C6E0D6A0D50000A9A
:1009F000D8B4FDEF04F042EF04F00C50010AD8B473
:100A00006FEF04F0030AD8B490EF04F0010AD8B4F1
:100A1000B1EF04F0070AD8B4D2EF04F042EF04F0CB
:100A200007EF00F0000E066E02BE1BEF05F019EF97
:100A300005F021EF05F0016C021ED8B0022A010E6C
:100A4000066E04BE28EF05F026EF05F02CEF05F04A
:100A5000036C041ED8B0042A03500410D8B433EF3A
:100A600005F035EF05F059EF05F0010E056E3DEF8D
:100A700005F0D89003360436052A04AE42EF05F09F
:100A800044EF05F039EF05F00350015C04500258C3
:100A9000D8A04DEF05F04FEF05F053EF05F00350F0
:100AA000015E0450025AD89004320332052E44EFFE
:100AB00005F00650D8B45FEF05F061EF05F065EF83
:100AC00005F0016C021ED8B0022A01C001F002C07C
:100AD00002F01200036E000E026E0250D8B473EFE3
:100AE00005F075EF05F080EF05F003C001F0013A65
:100AF000F00E011681500F0B0110816E84EF05F08E
:100B000081500F0B0310816E81948186100EE82EA8
:100B1000FED700D08196022A010E026492EF05F002
:100B200094EF05F06DEF05F00304D8B49AEF05F0EB
:100B30009CEF05F0A5EF05F0020E0318D8A4A3EF73
:100B400005F0A5EF05F0AEEF05F0030E016E980E6F
:100B5000E82EFED7012EFCD7B2EF05F0100EE82EDE
:100B6000FED700D012000600F2A4B9EF05F0BBEFEB
:100B700005F0F4EF05F0F2941850D76E17C0D6FFC9
:100B8000204A212A1E4A1F2A3C0E1E181F10D8A4D4
:100B9000CCEF05F0CEEF05F0F4EF05F0000E1F6E80
:100BA000000E1E6E1C4A1D2A3C0E1C181D10D8A4D7
:100BB000DCEF05F0DEEF05F0F4EF05F0000E1D6E42
:100BC000000E1C6E1A4A1B2A180E1A181B10D8A4E5
:100BD000ECEF05F0EEEF05F0F4EF05F0000E1B6E04
:100BE000000E1A6EF4EF05F022921100076E040653
:100BF0000EEF06F00450800F086E2BEF06F0045045
:100C0000C00F086E2BEF06F00450940F086E2BEF08
:100C100006F00450D40F086E2BEF06F00750056E57
:100C2000066A0650000AD8B418EF06F02BEF06F05B
:100C30000550010AD8B4FAEF05F0030AD8B4FFEF63
:100C400005F0010AD8B404EF06F0070AD8B409EF9A
:100C500006F02BEF06F008506AEC05F01200026E69
:100C6000000E036E0350D8B438EF06F03AEF06F0EA
:100C700045EF06F002C001F0013AF00E0116815076
:100C80000F0B0110816E49EF06F081500F0B02101F
:100C9000816E81848186100EE82EFED700D0819669
:100CA000032A010E036457EF06F059EF06F032EF06
:100CB00006F0100EE82EFED700D0120020EE11F044
:100CC00010EE05F0050EDBCFE3FFE806FCE28150F5
:100CD0000F0B816E81948196140E046E7A0EE82EAD
:100CE000FED7042EFCD7000E0B6E050E0B24D96E1A
:100CF000DA6A000EDA22DF506AEC05F00B2A050EE4
:100D00000B6485EF06F087EF06F075EF06F0120032
:100D100001040210D8A48FEF06F091EF06F095EFD2
:100D200006F0200EF26EF184D08E850ED56E045042
:100D3000D76E03C0D6FF01040210D8A4A2EF06F0BC
:100D4000A4EF06F0A5EF06F0F28E1200BC0EF66ED0
:100D50000D0EF76E000EF86E00EE11F010EE09F0B9
:100D60000900F5CFEEFFE550E150FAE100EE1AF090
:100D7000080EEE6AE806FDE122902292000EF86E5F
:100D8000000112EF04F0CFEF06F004C0F6FF05C03B
:100D9000F7FF0800F5502FEC06F0044A052A04C0BE
:100DA000F6FF05C0F7FF0800F5500009D8A4DBEFF7
:100DB00006F0DDEF06F0C5EF06F012003332280C26
:050DC0000601F7C2016D
:020000040020DA
:08000000FFFFFFFFFFFFFFFF00
:020000040030CA
:0E000000000C0000FF8181FF0FC00FE00F40D9
:00000001FF
