:020000040000FA
:0400000027EF06F0F0
:100800000045737461646F3A20202020202020204E
:10081000200020202053454E4149202031313820EE
:1008200020200000000E956E030E936E9484000E3F
:100830006D6E6F86E2EC05F00F0E836E010E046E96
:10084000010E7AEC05F0120E046E080E056E0CEC2B
:1008500006F0010E046E020E7AEC05F0010E046E35
:10086000080E056E0CEC06F0BAEF04F0838083925C
:1008700083948396090E046E020E7AEC05F014C080
:1008800001F0026A000E046E0A0E036ED9EC04F049
:100890000150300FB3EC05F082A851EF04F053EF94
:1008A00004F0BAEF04F0020E146EBAEF04F0839075
:1008B000838283948396090E046E020E7AEC05F00F
:1008C00014C001F0026A000E046E0A0E036ED9EC29
:1008D00004F00150300FB3EC05F082A472EF04F085
:1008E00074EF04F0BAEF04F0030E146EBAEF04F0E4
:1008F0008390839283848396090E046E020E7AECB1
:1009000005F014C001F0026A000E046E0A0E036EB8
:10091000D9EC04F00150300FB3EC05F081A093EF57
:1009200004F095EF04F0BAEF04F0040E146EBAEF81
:1009300004F08390839283948386090E046E020EE2
:100940007AEC05F014C001F0026A000E046E0A0E83
:10095000036ED9EC04F00150300FB3EC05F081A226
:10096000B4EF04F0B6EF04F0BAEF04F0010E146E29
:10097000BAEF04F014500C6E0D6A0D50000AD8B492
:10098000C4EF04F0BAEF04F00C50010AD8B436EF0B
:1009900004F0030AD8B457EF04F0010AD8B478EF92
:1009A00004F0070AD8B499EF04F0BAEF04F000EFAE
:1009B00000F0000E066E02BEE2EF04F0E0EF04F07D
:1009C000E8EF04F0016C021ED8B0022A010E066E98
:1009D00004BEEFEF04F0EDEF04F0F3EF04F0036C6E
:1009E000041ED8B0042A03500410D8B4FAEF04F05F
:1009F000FCEF04F020EF05F0010E056E04EF05F0AA
:100A0000D89003360436052A04AE09EF05F00BEF43
:100A100005F000EF05F00350015C04500258D8A027
:100A200014EF05F016EF05F01AEF05F00350015E24
:100A30000450025AD89004320332052E0BEF05F011
:100A40000650D8B426EF05F028EF05F02CEF05F09E
:100A5000016C021ED8B0022A01C001F002C002F0EF
:100A60001200036E000E026E0250D8B43AEF05F089
:100A70003CEF05F047EF05F003C001F0013AF00E3E
:100A8000011681500F0B0110816E4BEF05F0815064
:100A90000F0B0310816E81948186100EE82EFED715
:100AA00000D08196022A010E026459EF05F05BEF37
:100AB00005F034EF05F00304D8B461EF05F063EFFF
:100AC00005F06CEF05F0020E0318D8A46AEF05F0EC
:100AD0006CEF05F075EF05F0030E016E980EE82E31
:100AE000FED7012EFCD779EF05F0100EE82EFED7C9
:100AF00000D01200076E040692EF05F00450800F3C
:100B0000086EAFEF05F00450C00F086EAFEF05F0B0
:100B10000450940F086EAFEF05F00450D40F086E28
:100B2000AFEF05F00750056E066A0650000AD8B40C
:100B30009CEF05F0AFEF05F00550010AD8B47EEF49
:100B400005F0030AD8B483EF05F0010AD8B488EFA2
:100B500005F0070AD8B48DEF05F0AFEF05F00850A7
:100B600031EC05F01200026E000E036E0350D8B493
:100B7000BCEF05F0BEEF05F0C9EF05F002C001F0D3
:100B8000013AF00E011681500F0B0110816ECDEF6E
:100B900005F081500F0B0210816E81848186100E4A
:100BA000E82EFED700D08196032A010E0364DBEF06
:100BB00005F0DDEF05F0B6EF05F0100EE82EFED7DC
:100BC00000D0120020EE0EF010EE05F0050EDBCF87
:100BD000E3FFE806FCE281500F0B816E8194819661
:100BE000140E046E7A0EE82EFED7042EFCD7000EEB
:100BF0000B6E050E0B24D96EDA6A000EDA22DF5076
:100C000031EC05F00B2A050E0B6409EF06F00BEF33
:100C100006F0F9EF05F0120018EF06F004C0F6FF39
:100C200005C0F7FF0800F550B3EC05F0044A052AAB
:100C300004C0F6FF05C0F7FF0800F5500009D8A46E
:100C400024EF06F026EF06F00EEF06F01200780E05
:100C5000F66E0C0EF76E000EF86E00EE0EF010EE53
:100C600007F00900F5CFEEFFE550E150FAE1000E84
:0F0C7000F86E000112EF04F03332280C06010178
:020000040020DA
:08000000FFFFFFFFFFFFFFFF00
:020000040030CA
:0E000000000C0000FF8181FF0FC00FE00F40D9
:00000001FF
